S02000004672656552544F535F41546F7665725350495F56315F30342E73726563F5
S3150000000088930320AD790000D5770000A979000018
S31500000010A9790000A9790000A9790000A979000052
S315000000200000000000000000000000002D1E00007F
S31500000030A979000000000000451E0000AD1E00006A
S3150000004005650000A1650000796600006167000093
S31500000050E16C0000456C0000716D0000B96D000098
S315000000605533000089330000BD330000E133000042
S3150000007051720000517200000000000000000000F4
S31500000080000000000000000000000000000000006A
S31500000090000000000000000000000000000000005A
S315000000A0000000000000000000000000000000004A
S315000000B0000000000000000000000000000000003A
S315000000C0000000000000000000000000000000002A
S315000000D0000000000000000000000000000000001A
S315000000E0000000000000000000000000000000000A
S315000000F000000000000000000000000000000000FA
S3150000010000000000000000000000000000000000E9
S3150000011000000000000000000000000000000000D9
S3150000012000000000000000000000000000000000C9
S3150000013000000000000000000000000000000000B9
S3150000014000000000000000000000000000000000A9
S315000001500000000000000000000000000000000099
S315000001600000000000000000000000000000000089
S315000001700000000000000000000000000000000079
S315000001800000000000000000000000000000000069
S315000001900000000000000000000000000000000059
S315000001A00000000000000000000000000000000049
S315000001B00000000000000000000000000000000039
S315000001C00348044B834202D0034B03B118477047E0
S315000001D04C0400204C04002000000000064B074998
S315000001E0C91A891048BF0131491003D0044B0BB11D
S315000001F001481847704700BF4C0400204C040020FB
S315000002000000000010B5064C237843B9FFF7D8FF6D
S31500000210044B13B10448AFF300800123237010BDD3
S31500000220680400200000000014BC000008B5054B5F
S315000002301BB105490548AFF30080BDE80840FFF74C
S31500000240CDBF00BF000000006C04002014BC0000FD
S31500000250F0B5002303214FF4006680241048114AAC
S31500000260114F124D016141618261C761066283626D
S315000002704362C3620266456684660367C366436774
S31500000280BFF35F8F0A4B9E46A3F1100CAEEB030241
S3150000029013F9011D63458154F8D1BFF35F8FF0BD9B
S315000002A0040D002018A2000004050020840400208C
S315000002B0BCB400002DE9F041D0E902850446A8EB64
S315000002C00507406897422844154408D80E463A4622
S315000002D0A5EB080509F008FB2A466068F11909F044
S315000002E003FBBFF35F8FE560BDE8F0812DE9F843BE
S315000002F04FF00009064688461746D0E902243369BE
S31500000300151B9C4203F1FF3125BF03F1FF339B18F8
S315000003100B1B1B1BBD4228BF3D469D4228BF1D46E9
S31500000320706841462A46204409F0DEFAB2682C4439
S31500000330A24208BF0024A944A8447F1BBFF35F8FD5
S31500000340F460002FDBD14846BDE8F88338B5214B71
S3150000035000EB400403EBC40EDEF82C40013000EB4A
S315000003604000012C8C46154603EBC00015D0022C2C
S315000003700FD034BBDEF82830DEF8242093429CBF31
S31500000380DEF820105B18013B9A1A95421CD92046CC
S3150000039038BDBDE83840FFF7A9BFDEF82830DEF8E3
S315000003A02440A3429CBFDEF820105B18013B1C1BB7
S315000003B0944228BF144661462246FFF77BFF20463B
S315000003C038BD0024204638BD2A466146FFF772FF35
S315000003D02C46DCE7040D0020F8B50B4B04461B78D1
S315000003E00D4616466BB1EFF311874FF0200181F3EE
S315000003F01188324629462046FFF7A8FF87F3118861
S31500000400F8BDFFF725FFEEE7040D0020D0E9013225
S3150000041010B50446501C984207D8236899540246E2
S31500000420E16863680131C4E902019A4200D010BD57
S3150000043021682069FFF7D0FFA368984215BF4FF0E7
S31500000440FF330023E360A36010BD00BF2DE9F84F22
S3150000045091420F46DDE90A94154683461E4668D347
S315000004600B464FF00108B3FBF5F39D4208F1010876
S31500000470F9D9B04538BFB04614F0010A02D1B9F136
S31500000480000F3DD1DBF80C30002B29DB012402E004
S3150000049005FB04F4013E012EFAD8B7FBF4F39D42A6
S315000004A005D805FB04F4B7FBF4F39D42F9D9224EB7
S315000004B006E0AC42B4FBF5F30CD31C46B7FBF3F3F2
S315000004C0F156584604FB1377FFF7A0FFDBF80C3014
S315000004D0002BEEDABAF1000F02D0B9F1000F09D104
S315000004E0BDE8F88F20215846FFF790FFDBF80C3067
S315000004F0002BF5DBC14509F1FF39F3D8BDE8F88FCC
S31500000500A30711D420240CE021465846FFF77EFFAE
S31500000510DBF80C3009F1FF39002BE1DBB9F1000FF4
S31500000520B2D0C145F0D8ADE7002E0CBF3024202450
S31500000530F7E74FF001089CE7C0B400002DE9F04F43
S31500000540002340249BB00DF1280ACDE904A481467E
S315000005500C461746CDE90633089006E004A8FFF7D7
S3150000056055FF079B002BC0F2AE8014F9011B002932
S3150000057000F0A1802529F1D10026234613F9012B8D
S31500000580A2F123010D2908D8DFE801F0800707074B
S31500000590070707077C0784070778A2F13001C9B26D
S315000005A009294FF000050FD805EB850502EB450537
S315000005B093F900201C46A2F13001C9B20929A5F120
S315000005C0300503F10103EFD92E2A00F0FB804FF02E
S315000005D0000B94F9001021F0040068281C465DD039
S315000005E02529BBD05839CBB2202BBAD82029B8D868
S315000005F001A353F821F000BFCF06000063050000F9
S315000006006305000063050000630500006305000044
S315000006106305000063050000630500006305000034
S3150000062063050000B10700004907000063050000EC
S315000006306305000063050000630500006305000014
S315000006406305000063050000630500006305000004
S315000006506305000063050000110700006305000044
S3150000066063050000EB060000630500002F0700008D
S315000006706305000063050000CF0600001C4646F037
S3150000068002067AE71C4646F0040676E71C4646F064
S31500000690080672E71C4646F001066EE714F9011BD0
S315000006A021F00403682B9BD114F9011B21F00403EC
S315000006B0682B95D1F2E7079B002B04DD069C002CE6
S315000006C040F09980234418461BB0BDE8F08F1022F5
S315000006D038685B4601680430CDE9005638600DEB9A
S315000006E00200FFF7B3FE079B3CE73B681A1D3A6022
S315000006F01D6815F9011B00293FF433AF04A8FFF765
S3150000070085FE079B002BF4DA18461BB0BDE8F08F78
S315000007100823102200253868016804303860CDE9C6
S3150000072000350DEB0200FFF791FE079B1AE73868CC
S315000007305B4601680430CDE900560A22386004A8F9
S31500000740FFF784FE079B0DE73B684FF001081A6828
S3150000075004333B6082EAE273A3EBE273092B039254
S3150000076009DD59481946A0FB03C3632908F10108AE
S315000007704FEAD303F6DCD84538BFD846002D43D11F
S31500000780079900250B4600299DDB039B002B65DBA3
S3150000079073076FD406F00303022B74D05B460A225C
S315000007A0CDE90056039904A8FFF750FE079BD9E64A
S315000007B03B6804A81A1D93F900103A60FFF726FE5D
S315000007C0079BCFE694F90110A1F13002D2B2092AB3
S315000007D055D81C464FF0000B0BEB8B0201EB420287
S315000007E014F9011FA2F1300BA1F13003DBB2092B82
S315000007F0F2D9631CEFE62246514648460393FFF7BB
S31500000800EBFD039B23445EE7039A06F00203002AEE
S315000008101ADB720718D4002B4CD0BBF1000F10D096
S31500000820F0070CD50DE0202104A8FFF7EFFD07998E
S31500000830013D00290B46FFF646AF002DA3D0A84583
S31500000840F1D307990B469EE7013D13B1BBF1000FAB
S31500000850F7D0F207F5D4002DF1D191E75B422D21B7
S3150000086004A80393FFF7D2FD079900290B46FFF66C
S315000008702AAF8FE72B2104A8FFF7C8FDF4E74FF056
S31500000880000B0133A7E6BBF1000F87D1002D85D001
S31500000890454516D9302104A8FFF7B8FD0799013D53
S315000008A000290B46FFF60FAF002DF1D10029FFF608
S315000008B00AAF73E7F107C2D5079B002BBFF66EAFF1
S315000008C001E70B46F2E700BFCDCCCCCC0EB400B5A9
S315000008D082B003AB53F8041B01AA0193FFF72EFE67
S315000008E002B05DF804EB03B0704700BF90F900302A
S315000008F06BB1002204E00A2B04D010F9013F33B19A
S315000009000D2BF8D1027010F9013F002BF8D170477A
S31500000910012970B58E4616462FDD01460020944605
S3150000092005460EF1FF3E0C4611F9012BA2F1090313
S31500000930202ADBB2F7D0012BF5D9614692B1CCF86B
S31500000940004094F9003001300CF1040C43B10A2B3D
S3150000095004F1010109DC082B09DD70452570E2D19F
S3150000096006EB800100230B6070BD202BF5D091F9BA
S315000009700030002BF4D00C46E9E711460020F1E7E1
S3150000098000F0CCBB0379012B03D00222024B1A7074
S315000009907047014A13707047AC0D00202DE9F043F3
S315000009A083B00AB11C4623B90125284603B0BDE829
S315000009B0F0839D080135AD00ADB205F108091FFAB7
S315000009C089F948460F46904607F098F806460028EB
S315000009D0EAD04A46002108F041FF8023F5713FBA6C
S315000009E02D0A22464146B3803760B57106F10800EC
S315000009F008F07AFF314607234A461B4805F0FAFB02
S31500000A00014640BB194A1A4C07E01368013B1360C4
S31500000A10106890B12378022B16D02378012BF4D1DD
S31500000A2000236FF07F411D4611602370304607F0AA
S31500000A30FFF8284603B0BDE8F0830E4B0E4A0F4977
S31500000A40FFF744FF0125F1E70D4B0B4A0B49002048
S31500000A50FFF73CFFF6E700910A4B074A07490020DB
S31500000A60FFF734FFEEE700BFA45F002080010020FF
S31500000A70AC0D00206CA20000E0B4000050A2000003
S31500000A80A8A2000024A200002DE9F0474FF0000ABA
S31500000A9082B0CDF804A00AB11D461BB9012002B0F0
S31500000AA0BDE8F08703F10806B6B230460C46174695
S31500000AB007F024F88046304607F020F88146B8F162
S31500000AC0000FEBD00028E9D032465146404608F0E8
S31500000AD0C5FE32465146484608F0C0FEC0236E4663
S31500000AE08DF8043024BA6BBAADF80630009403CE04
S31500000AF00723C8F80000C8F8041008224146304809
S31500000B0005F078FB00284DD12E4C2F4E08E02168C9
S31500000B1001392160206800283ED03378022B34D07A
S31500000B203378012BF3D16FF07F434FF0000A236037
S31500000B302A4607234946224886F800A005F04CFBC2
S31500000B4070B15046214B224A2249FFF7BFFEA5E766
S31500000B502368013B2360206858B33378022B14D0F6
S31500000B603378012BF4D16FF07F43236000242A46AB
S31500000B7049463846347008F0B7FE404607F058F844
S31500000B80484607F055F8204689E7134B104A1149A5
S31500000B900020FFF79BFE81E7104B0D4A0D49FFF73A
S31500000BA095FE7BE750460E4B094A0A49FFF78EFE33
S31500000BB074E70C4B064A0749FFF788FE6EE700BF4D
S31500000BC0A45F002080010020AC0D002010A30000CF
S31500000BD0D0B4000050A20000A8A200006CA2000041
S31500000BE0F0A2000030A3000030B5002489B003A8AD
S31500000BF0CDE90344CDE90544079406F0AFFD354938
S31500000C002046FFF763FE34492046FFF75FFE334A6E
S31500000C1033492046FFF75AFE9DF80D209DF80E3009
S31500000C203049009220469DF80F20FFF74FFE2949D4
S31500000C302046FFF74BFE2C4B2C491A682046FFF73F
S31500000C4045FE012305ADCDE900354FF4806223460C
S31500000C502749284807F09AFE012803D0204626494E
S31500000C60FFF734FE012406A8019000234FF48062AA
S31500000C7022492348009407F089FEA04203D00020B1
S31500000C802049FFF723FE012407A8019000234FF413
S31500000C9080621D491D48009407F078FEA04203D0EB
S31500000CA000201B49FFF712FE032404A8019000232D
S31500000CB04FF4806217491848009407F067FE012830
S31500000CC003D000201549FFF701FE07F04FFF09B0DA
S31500000CD030BD00BF6CA30000B4A3000004A4000054
S31500000CE00CA4000050A400008C6C00209CA4000002
S31500000CF0B8A400004D170000C4A40000E4A400003E
S31500000D00C1190000ECA400000CA50000611500004C
S31500000D1014A5000034A50000750D00003CA50000D8
S31500000D20022800D07047024B0248596806F0C8B93D
S31500000D3078B500008C5F002010B500240A4B82B005
S31500000D4019680222094801AB019408F073FC48B106
S31500000D50019B3BB14FF08052054B5A60BFF34F8F5A
S31500000D60BFF36F8F02B010BDF81D0020BD7E0000DE
S31500000D7000ED00E02DE9F04F9E498DB081469E4A78
S31500000D800020FFF7A3FD9D499D4806F0FDF90028C8
S31500000D9000F01E8104469B490020FFF797FD22467E
S31500000DA099490020FFF792FD00BE954806F02EFAFD
S31500000DB00446002800F0088194490020FFF786FDCC
S31500000DC0224691490020FFF781FD00BE90499148D7
S31500000DD005F01CFA002840F0068106F067FF8E4FEA
S31500000DE0386018B100208D49FFF770FD00220421FC
S31500000DF00A2007F0D9F98A4BDFF894B2DFF894A2FB
S31500000E00186001E0E30738D40A2401220094002385
S31500000E100321386806F058FF82070446F2D50023FE
S31500000E209BF80020CDE90733002A00F086800823CE
S31500000E3048467C4907AAFFF727FE054600283FD00B
S31500000E4000231421784A07A808F094FCDAF8003049
S31500000E50002B7ED0754907A808F028FD0028D1D0C0
S31500000E600025734B1D7007F0C5FF634A03467149A1
S31500000E702846FFF72BFDE307C6D5694B0022186805
S31500000E8007A907F027FB0028BED0079A002A00F022
S31500000E9094801389484668495268FFF77FFD002809
S31500000EA040F09A80079C34B1606808B106F0C0FE35
S31500000EB0204606F0BDFE0121386806F0B3FFA3E721
S31500000EC0DDE907231FFA83F80492B8F1000F45D035
S31500000ED0434601331846CDF80C80059306F00EFE06
S31500000EE0064656492846039AFFF7F0FC002E89D09D
S31500000EF0059B29461A46304608F0B0FC01214FF4FE
S31500000F00FA7006F03BFC4346324648460499FFF722
S31500000F10BBFD002841D14A4B1D6875B3494D2B686E
S31500000F20002B3FD0039A13442B6007F063FF464B18
S31500000F301860304606F07CFE64E74449444800F0F9
S31500000F404FFF4449444800F04BFF01238BF8003023
S31500000F506DE7424807A900F043FF53E7C3F3074391
S31500000F60202B7FF46EAF3E4B93E803000B0C0790EB
S31500000F70ADF820108DF8223068E7DAF80030BBB102
S31500000F8030462A4908F092FC0028D2D0284B284641
S31500000F9034491D70FFF79AFCCBE728463249FFF724
S31500000FA095FCC6E707F026FF304B18602B68B9E7BB
S31500000FB031462A4800F014FFBBE740F251112C4B92
S31500000FC00D4A2C4806F0D2FB2B49FFF77FFCFDE6C5
S31500000FD02A49FFF77BFCE8E640F25511284B064A02
S31500000FE0244806F0C3FB274B274A28490020FFF771
S31500000FF06DFCF2E65CA5000020B5000084B500009B
S31500001000945F00206CA5000094A50000E0A50000F8
S3150000101098B50000A45F0020F81D002064A600001B
S31500001020F41D00205802085020A7000068A7000001
S31500001030FE02002030A7000060020850C0A6000093
S31500001040BC0D0020C00D0020B00D002004A400003F
S3150000105088A6000098A60000ACA60000F0A6000036
S3150000106018A70000D0A60000F8A60000B40D0020C6
S3150000107040A7000044A7000008A60000B4A5000091
S3150000108058A7000034A6000014B5000050A20000C6
S31500001090FC1D0020B80D002070B370B50C4682B060
S315000010A021B305460C2006F029FD0646F0B1204680
S315000010B006F024FD7060D8B12246002108F0CEFB70
S315000010C022462946706808F00FFC34810E49002339
S315000010D008684FF0FF3201A9019607F093F801283E
S315000010E001460AD1094B186806F09CFE02B070BD95
S315000010F0304606F09DFDE9E7704740F26B11044B60
S31500001100044A054806F032FBF41D0020F81D0020B5
S315000011106CA7000004B5000044A700002DE9F04FBD
S315000011208B46DBF8005085B0044603222846AF49BB
S31500001130CDF808B008F09AFB002840F08D80022C0C
S31500001140064600F3D580B246A94800F049FE03964C
S31500001150A84AA9490020FFF7B9FBA84800F040FEBD
S3150000116007F048FEA64BA74DDFF80883186086B344
S315000011700127DFF80493A44CC9F8007007F03AFE83
S31500001180A24A0346A2490020FFF7A0FB99481FFA8E
S315000011908AF1FFF781FF2378002B00F0F7809D4F3F
S315000011A0DFF8D8B20121084606F0E8FA41F2C60394
S315000011B0013F05FB07F2B3EBB21F80F0C88023782E
S315000011C0002BEFD1C9F800300123013E2370002E19
S315000011D0CED1029B4FF47A75986808F043FA074619
S315000011E007F008FE0446864B30461B688A49E41A17
S315000011F0039B224607FB03F8B8FBF4F600933B4635
S31500001200FFF764FB854800F0EBFDC8F3090205FB18
S3150000121002F24FEA98218248920A00F0E1FD8149E4
S3150000122005FB06F6A1FB0431890905FB1142B70A45
S315000012307D4800F0D5FDFB0003F47E73009339462C
S315000012407A48FB0906F47E7200F0CAFD784805B0BC
S31500001250BDE8F04F00F0C4BD08222846754908F0E5
S3150000126005FB0346002800F09680062228467249B0
S3150000127008F0FCFA0646002840F0A1806F4A604B51
S31500001280DFF8DC9115681A68D9F80030AD1AB3FB9F
S31500001290F5F34FF47A786A4808FB03F400F0A0FDF2
S315000012A0D9F800106748C1F3090208FB02F2890A5F
S315000012B0920A00F095FD5B49A70AA1FB0531890951
S315000012C008FB1152604800F08BFDFB0003F47E73AF
S315000012D03946009304F47E72FB095C4800F080FDF9
S315000012E0534800F07DFD5A4B1E6005B0BDE8F08FF7
S315000012F0DBF8040008F0B6F90346DBF808001D46E3
S31500001300039308F0AFF903463A4C314641F23002F6
S3150000131020461E4608F0A2FA1B23237004224D49DC
S31500001320DBF8000008F0A2FA002842D0039A4A49E6
S31500001330601C08F053FA2F4808F0E3FA8246039D32
S3150000134030212A46201808F089FAAA4400E7A8FBAB
S31500001350073132465846890C00F042FD237863B1C6
S31500001360002F7FF41FAF0122C9F8007022703B489E
S3150000137005B0BDE8F04F00F033BDC9F800300123D9
S31500001380013E2370002F7FF4F2AEF0E7C9F800307B
S315000013902770013EEBE601212D4A314C314823608E
S315000013A0116000F01DFD304805B0BDE8F04F00F0BB
S315000013B017BD2A462D49601C08F010FABBE72846DF
S315000013C008F09FFA044607F015FD029E03463568AD
S315000013D00E4A274900950020FFF778FA3068A1B237
S315000013E005B0BDE8F04FFFF757BE00BF90A700005D
S315000013F0B4A70000C40D0020C4A70000D8A70000B1
S31500001400B40D00203961C268FE020020ECB4000071
S3150000141030A70000002D310170A80000A0A8000030
S31500001420E0A80000D34D6210FCA800001CA9000033
S3150000143044A9000084A90000ECA90000B00D00201A
S31500001440F4A9000034AA000054AA00007CAA0000F7
S31500001450BC0D002094A70000A8A7000054A8000017
S31500001460C00D002090A90000D0A900009CA7000094
S31500001470ACAA000083DE1B43B80D002018A80000AC
S31500001480F8B5012901F1FF370446C65790F9003037
S315000014903BD91B2B14D010291FD911222C4908F037
S315000014A0E5F90546D8B9032E39D1204608F029FAC0
S315000014B022460146274800F093FCE55504252EE018
S315000014C090F9013023F02003432B34D00D2E2DD07C
S315000014D00A2E2BD000252846F8BD092934D90A2220
S315000014E020461D4908F0C2F90546D0B1062220461D
S315000014F01A4908F0BBF9054648B90D2E01D00A2E47
S315000015000DD100230525E35509E01B2BDED00D2E5A
S3150000151018D0A6F10A05B5FA85F56D096D002846BD
S31500001520F8BD032EFBD13546E055F8E70323012528
S31500001530E3552846F8BDA6F10305B5FA85F56D090C
S315000015402846F8BD0225EAE70529E0D9CEE700BF1F
S31500001550C4AA0000D8AA000000AB00000CAB000033
S315000015602DE9F04F0024DFF82081DFF82091DFF825
S3150000157020A1414E414D424F8FB098F80030002BCC
S3150000158053D04FF00A0C002301224FF40071D9F812
S315000015900000CDF800C006F097FB8305EDD50023CB
S315000015A0ADF80830002C5BD09AF800301BB3DFF89A
S315000015B0E0B003E001349BF80030E3B1082B284685
S315000015C002A903D05BB233558DF8083000F008FC51
S315000015D01BF8013B0397082BECD1002CEBD04FF006
S315000015E00003284603A9335500F0FAFB9BF80030A8
S315000015F0013C002BE2D141F2300300229C428AF8E2
S31500001600002028D821463046FFF73AFF022810D09E
S315000016101DDC0128B1D1012004A90496FFF7B0F919
S3150000162098F800300024002BABD1012007F0BAFB5C
S31500001630A3E73046FFF75AF90A21304604AAFFF716
S3150000164067F90028ECD004A9FFF79AF9E8E7033810
S31500001650022892D8DFE70B4800F096FB0024D1E77A
S3150000166041F230022146304608F0F8F89AF8003088
S31500001670002B9CD1F2E700BF001E002014AB000037
S315000016800820080018AB0000843E0020F04E002021
S31500001690244F00202DE9F04100240379254A82B029
S315000016A0042B0194137002D002B0BDE8F081037AD6
S315000016B0214E0D2BB5882DD0B5F5105F05D26A1CCD
S315000016C0316892B24B551546B280B5F5105FEBD135
S315000016D034681A4B2A462146186808F005F9002195
S315000016E02A462046B18008F0B9F8154B022219683F
S315000016F0144801AB07F09EFF0028D5D0019B002BB4
S31500001700D2D04FF08052104B5A60BFF34F8FBFF3C9
S315000017106F8FC9E7D6F80080084F2A4641463868D9
S3150000172008F0E2F84FF4105240462146BD80B480DE
S31500001730D9E700BF302E0020402E0020382E002092
S31500001740342E0020BD7E000000ED00E02DE9F04FB4
S31500001750634985B00020634AFFF7B8F862496348D9
S3150000176005F0BAF8002840F0A8800024604D4FF438
S315000017701050AC8006F0C2F92860002800F0AA805C
S315000017804FF4105221465B4D08F068F84FF41050A4
S31500001790AC8006F0B3F92860002800F095804FF47D
S315000017A01052214608F05AF806F080FA524F386077
S315000017B018B120465149FFF789F8002204210A2072
S315000017C006F0F2FC4FF00009DFF868A1DFF8688147
S315000017D0DFF868B1CAF800004FF0FF360122002397
S315000017E003213868009606F06FFA8207044613D57F
S315000017F0AB888BB12A687AB141460020FFF766F8BC
S31500001800A9882868FFF748FC4FF410520021286881
S31500001810A5F8049008F022F8E307DFD50022DAF8ED
S31500001820000003A906F056FE0028D5D0039A002A28
S3150000183035D01389594652680020FFF747F8039BB5
S3150000184059681A89E9B1E2B12848C2EB024404F0AA
S31500001850FDFF2B4B04E0013C28D01A78782A17D0DC
S315000018601A78022AF7D1039C34B1606808B106F0F1
S31500001870DFF9204606F0DCF90121386806F0D2FAD5
S31500001880AAE7204B204A21490020FFF71FF8EAE784
S315000018901F4B1D4A1D490020FFF718F8E3E740F2E9
S315000018A021111C4B0F4A1C4805F060FF20461B4BBC
S315000018B0154A1649FFF70AF8D5E7194B194A13498D
S315000018C00020FFF703F850E7AE21174B174A1248DE
S315000018D005F04CFFA921164B144A0F4805F046FFA8
S315000018E05CA500004CB50000F8B50000E45F0020E0
S315000018F0402E0020382E0020342E002098AB000009
S31500001900302E0020E8AB000028B5000050A20000F1
S315000019101CAC000040A7000074AB000044AC000003
S315000019203CAB000038B5000088AB000044B50000B1
S3150000193064AB0000482E0020B8AB0000D0AB00001E
S315000019400023844630B51A4C83B0019300F120057C
S31500001950A646DCF80000DCF80410DCF80820DCF809
S315000019600C300CF1100CAC45AEE80F0004F110047D
S31500001970EED1DCF800000F4D2060286806F048FA2A
S31500001980C30601D503B030BD102229680A4801AB51
S3150000199007F050FE0028F5D0019B002BF2D04FF047
S315000019A08052064B5A60BFF34F8FBFF36F8FE9E744
S315000019B0F44E0020F04E0020BD7E000000ED00E059
S315000019C02DE9F04FAC4985B00020AC4AFEF77EFF0A
S315000019D0AB49AC4804F0AEF9002840F07781DFF857
S315000019E0DCB2A949A74804F095F9002840F0A48183
S315000019F0A649A44804F088F9002840F0838106F03F
S31500001A0055F9A34F386018B10020A249FEF75EFFD2
S31500001A100225DFF8AC82DFF870A2DFF8A892994EB3
S31500001A204FF0FF34012310211A463868009406F05F
S31500001A304BF9C106F6D5934CDFF88CC2012DBCE8F4
S31500001A400F000FC4BCE80F000FC4DCF800302360A1
S31500001A5000F0B480B379033B072BE1D801A252F81A
S31500001A6023F000BF8D1A0000851A0000211A00001D
S31500001A70851A00001B1B00008D1A0000CB1A0000FF
S31500001A807D1B0000002389F80030C9E71DB94FF01F
S31500001A90FF33C8F8003041F2680230469AF8003049
S31500001AA07D4904F01BFA002840F0A480B379082B86
S31500001AB0B6D1002DB4DD012D05D14FF0FF3389F8E5
S31500001AC00050C8F80030013DAAE741F268023046EE
S31500001AD09AF80030704904F001FA002840F0A4801A
S31500001AE041F268026C496D4807F0FEFE41F2680259
S31500001AF00021694807F0B2FE00233868039306F018
S31500001B0087F98305D2D44FF400723968644803AB71
S31500001B1007F090FD0028C9D044E00DB9C8F8005080
S31500001B203046604904F0FEF85E4B1B8803F47F43A1
S31500001B30B3F5005F00F08D80B3F5045F00F092808E
S31500001B40B3F5085FB2D10021304604F05FFA0028F1
S31500001B50ACD0DBF8043001229988534805F098F997
S31500001B60DBF80430002259884F4805F091F901222C
S31500001B704E490020FEF7AAFE00BE97E71DB94FF0BA
S31500001B80FF33C8F8003000233868039306F040F9A5
S31500001B9002078BD408223968414803AB07F04AFD97
S31500001BA0002883D0039B002B80D04FF08052404BFF
S31500001BB05A60BFF34F8FBFF36F8F77E76422B37915
S31500001BC0C8F80020033B072B3FF62AAF01A252F8C4
S31500001BD023F000BF971A0000851A0000211A0000A2
S31500001BE0851A0000211B0000971A0000CB1A00007E
S31500001BF0871B0000214A2F490020FEF767FEDBF80D
S31500001C00043001229988284805F042F9DBF80430AF
S31500001C1000225988244805F03BF901222349002077
S31500001C20FEF754FE00BE41E7DBF804300122998836
S31500001C301D4805F02DF9DBF80430002259881A48B2
S31500001C4005F026F9012219490020FEF73FFE00BEE5
S31500001C5046E707223046184904F094F900283FF475
S31500001C6025AF76E707223046134904F0ADF9002880
S31500001C703FF41CAF6DE700BF60AC000058B5000034
S31500001C802CB6000014600020184F0020194F0020C9
S31500001C90F04E0020DCAC0000883E0020244F0020DF
S31500001CA0BD7E00001C4F00208C5F002094A5000024
S31500001CB000ED00E000AD00007C3E00209CB8000076
S31500001CC000030020843E0020F44E0020DFF8B4B06C
S31500001CD0264A27490020FEF7F9FDDBF804300122E9
S31500001CE09988244805F0D4F8DBF804300022598896
S31500001CF0204805F0CDF801221F490020FEF7E6FD39
S31500001D0000BE6EE6194A1D490020FEF7DFFDDBF82E
S31500001D10043001229988174805F0BAF8DBF8043038
S31500001D2000225988134805F0B3F801221249002011
S31500001D30FEF7CCFD00BE62E60C4A11490020FEF714
S31500001D40C5FDDBF80430012299880A4805F0A0F8A1
S31500001D50DBF8043000225988064805F099F801227C
S31500001D6005490020FEF7B2FD00BE41E658B5000069
S31500001D7078AC00008C5F002094A50000B4AC000095
S31500001D8090AC00009CB8000010B5114B82B01B78D7
S31500001D901BB91C46204602B010BD044607F0B1FD33
S31500001DA00C4B024621460C481B7804F0C1F8044649
S31500001DB00028EFD101234FF0FF32084808210068C0
S31500001DC000921A4605F080FF204602B010BD00BF03
S31500001DD0843E0020184F002014600020F04E0020A2
S31500001DE00FB470B582B00C4D06AC54F8046B41F2DA
S31500001DF030020021284607F031FD224631462846AA
S31500001E00019407F021FD2846FFF7BEFF02B0BDE8AA
S31500001E10704004B0704700BF4C2E002008B5FEF796
S31500001E20E3FE002008BD00BF00BEFEE71EF0040F63
S31500001E300CBFEFF30880EFF3098001490847000063
S31500001E40D11E00000F4B1968EFF309821EF0100F28
S31500001E5008BF22ED108A22E9F04FEFF30B8342F818
S31500001E60043D0A604FF0100080F31188BFF34F8FD6
S31500001E70BFF36F8F06F0DAFF4FF0000080F3118892
S31500001E8000F002B8008E0320074801680A6802CAFB
S31500001E9081F30B88B2E8F04F1EF0100F08BFB2ECCA
S31500001EA0108A82F309887047008E032010B5EFF37D
S31500001EB01184102383F3118806F0A8FF18B14FF0A0
S31500001EC08052024B5A6084F3118810BD00ED00E089
S31500001ED008B5836913F8023C022B02D0032B04D801
S31500001EE008BDBDE80840FFF7CFBF40F20441024BF2
S31500001EF0024A034805F03AFC1CAD000004B8000095
S31500001F0030AD000070B44FF080756FF00204094EDA
S31500001F10283122F0010240F80C6C40F8045C40F8CD
S31500001F20244C40F8203C40F8082C70BC40F8481D72
S31500001F30704700BF291E000008B5EFF3118110237A
S31500001F4083F311880A4A13680133012B136000D00A
S31500001F5008BD084A084B11605B68C3F30803002BF1
S31500001F60F6D04FF49F61054B054A064805F0FEFB87
S31500001F70446000204060002000ED00E058AD000005
S31500001F80DCB7000030AD0000094A08B513683BB164
S31500001F90013B13601BB9074B1B6883F3118808BD0F
S31500001FA040F20151044B054A054805F0DFFB00BF2E
S31500001FB04460002040600020A0AD0000C8B70000CB
S31500001FC030AD000080B3194B9A8990B2120409D43F
S31500001FD0BFF34F8F30BFBFF36F8F62B6BFF36F8F04
S31500001FE072B670474AF202514FF0000CB3F8FE2366
S31500001FF0A3F8FE1392B242F42542A3F80CC0A3F84C
S31500002000FE23BFF34F8F30BFBFF36F8F62B6BFF3B0
S315000020106F8F72B6B3F8FE23A3F8FE1392B242F4A2
S3150000202025429881A3F8FE23704700BF00E00140D7
S3150000203008B572B606F0DAFD0120FFF7C3FF62B6F7
S31500002040BDE8084006F0DABD0D4B0E4A1B68A2FB40
S3150000205003239B09013BB3F1807F00D370474FF008
S31500002060E0224FF0F00C0020072110B4064C53611B
S3150000207084F823C05DF8044B90611161704700BF7E
S315000020808C6C0020D34D621000ED00E04FF0FF0C89
S3150000209030B50724244B83B01A782449D2B28DF880
S315000020A0032083F800C01B782148DBB20193019B13
S315000020B0019AC3F30013120648BF062204600B7090
S315000020C00AD5019B11465B000193019B013A1B0651
S315000020D0F7D4032907D0016040F2A441154B164AF4
S315000020E0164805F043FBF0214FF440759DF8033088
S315000020F0134A0D4CDBB20560237082F82210FFF7FD
S31500002100A3FF104A536B43F04043536362B6BFF3D9
S315000021106F8FEFF3148C2CF0040C8CF31488BFF340
S315000021206F8F02DF00BEFDE700E400E03C600020A8
S3150000213038600020B4AD0000F0B7000030AD0000FC
S3150000214000ED00E000EF00E008B5EFF30383103B7D
S315000021501A0609D5124B134ADB681268C3F3022329
S31500002160B3EB122F14D808BD03F0FF0202F160434F
S315000021700D4903F5614393F800230B78B3EB121F67
S31500002180E8D940F26361094B094A0A4805F0EEFABC
S3150000219040F27561084B064A064805F0E7FA00BFAB
S315000021A000ED00E0386000203C600020E0AD00005B
S315000021B0A8B7000030AD00000CAE0000194B1B881C
S315000021C0012B00D0704790F8222010B5022A14BFC8
S315000021D0822180218AB0C36804698DF80620028DA9
S315000021E01B1B042A03938DF8071017D0052A12D05B
S315000021F0032A40F2DC5308BF002390F824C0C269CA
S3150000220001A90920ADF808308DF804C0069201F046
S3150000221043FD0AB010BD40F2DF53EEE740F2DE5355
S31500002220EBE700BFEC610020164B1B88012B00D0AA
S31500002230704700B590F822208BB0012A1ED0002AE4
S315000022400CBF4FF0820E4FF0810E018D40F2DC5331
S31500002250012908BF002390F824C08DF80620C26922
S3150000226001A90A208DF807E08DF804C00692ADF8A2
S31500002270083001F011FD0BB05DF804FB4FF0800E45
S31500002280E3E700BFEC61002010B5044631B900F069
S3150000229029FDC3050AD54FF4807010BD00F09AFDE4
S315000022A0204600F0E3FDC0F30A0010BD204600F012
S315000022B04DFD00F07F0010BD2DE9F8434F4B90F81F
S315000022C02470044633F817300D469BB2022B4ED0CD
S315000022D000F0A8FB2946204600F0E2FB29462046EE
S315000022E000F01CFC2946204601F0BAFC294620468F
S315000022F000F070FD642307FB03F3DFF8088105EBAC
S31500002300850203EB4203434459884FEA8509642654
S3150000231007FB06F6A94406EB49062046464400F0AC
S315000023208DFD2046F18800F0BDFD2046318900F084
S31500002330D1FD2046002100F04DFD2946204600F043
S3150000234071FE2946204601F077FC2946204600F01A
S315000023500DFE2946204600F00FFC2946204600F0D7
S3150000236029FC29462046BDE8F84300F041BC244E2E
S3150000237056F8210008B105F05BFC002329462046EB
S3150000238046F8253002F08AFB06462946204694F890
S31500002390247000F047FB2946204600F081FB2946C1
S315000023A0204600F0BBFB013E2946204601F058FCC2
S315000023B0B6B22946204600F00DFD012E10D8642342
S315000023C007FB03F3DFF83C8005EB850203EB4203D2
S315000023D0434459884FEA850941F48061598096E75C
S315000023E064230A2207FB03F302FB0533DFF814809C
S315000023F04FEA85094344598889E700BF986600205B
S31500002400C46000206060002070B5344B90F8242032
S31500002410054633F812300E469BB2022B54D0314695
S31500002420284601F01DFC3146284600F0FBFA3146ED
S31500002430284600F035FB3146284600F06FFB48F28F
S315000024402F034FF400420021284600F09DF9002199
S31500002450284600F063F910F02F04F8D131462846DB
S3150000246000F0B8FC2146284600F0E8FC2146284644
S3150000247000F018FD2146284600F02CFD214628468E
S3150000248000F0A8FC3146284600F0CCFD314628462F
S3150000249001F0D2FB3146284600F068FD3146284659
S315000024A000F06CFE3146284600F086FE314628468E
S315000024B000F062FB3146284600F07CFB3146284698
S315000024C0BDE8704000F094BB054C54F8210008B1FB
S315000024D005F0AEFB002344F82630A0E798660020FE
S315000024E0C460002070B5012206460D464FF6FF7403
S315000024F000F0FEFD2946304600F004FD013C10F0D8
S31500002500200FA4B200D170BD002CF3D170BD00BF66
S3150000251070B505461646A2B164240BE0284600F0C5
S3150000252059F8013C284600F06FF8A4B20A2000F0E2
S315000025300BFFC4B13146284600F0AAF98304EDD555
S3150000254070BD41EA0304114648F22F0344F40042E9
S3150000255000F01AF90021284600F0E0F800F02F00FC
S315000025608442F7D1D8E7FF2070BD00BF02B17047A3
S3150000257038B543EA0104114648F22F0344F40042F9
S31500002580054600F001F90021284600F0C7F800F0E2
S315000025902F008442F7D138BD70B504460D46164665
S315000025A000F00AFE29462046324600F023FE294660
S315000025B02046BDE8704000F0C3BD00BF38B50446F4
S315000025C00D4600F0DBFD29462046BDE8384000F008
S315000025D0F3BD00BF094B90F8242033F812309BB2AC
S315000025E0022B01D0002070471AB9054B188880B21B
S315000025F07047044B188880B2704700BF9866002069
S315000026000000094000101140094B90F8242033F8CF
S3150000261012309BB2022B01D0002070471AB9054B2D
S31500002620988880B27047044B988880B2704700BF84
S31500002630986600200000094000101140094B90F8F0
S31500002640242033F812309BB2022B01D000207047B1
S315000026501AB9054B188980B27047044B188980B2A5
S31500002660704700BF98660020000009400010114026
S31500002670094B90F8242033F812309BB2022B01D07C
S31500002680002070470029FBD1012A0BBF034B044BE6
S31500002690D88A988A80B27047986600200010114048
S315000026A0000009400C4B90F8240033F810309BB220
S315000026B0022B0AD001290CD0022903D021B9074BDD
S315000026C09A827047054B9A8370470128FCD00129EE
S315000026D0F2D1024B1A837047986600200000094029
S315000026E00C4B90F8240033F810309BB2022B0AD022
S315000026F001290CD0022903D021B9074B1A7570475E
S31500002700054B1A7770470128FCD00129F2D1024BFC
S315000027101A7670479866002000000940134B90F81F
S31500002720242033F812309BB2022B1CD1012912D07F
S31500002730022907D10E490F4B012A08BF0B461888FC
S3150000274080B2704779B90C490C4B012A08BF0B4679
S31500002750188880B270470A490A4B012A08BF0B46FF
S31500002760188880B2704700231B88FFDE9866002019
S315000027702C1011402C000940201011402000094067
S31500002780281011402800094010B4174C90F824C0B6
S3150000279034F81C0080B2022822D1012919D002295E
S315000027A006D112481249BCF1010F08BF084606E0DF
S315000027B0B1B910481049BCF1010F08BF084601889D
S315000027C01A4089B221EA030313435DF8044B0380E0
S315000027D070470A480A49BCF1010F08BF0846EEE7F0
S315000027E000231B88FFDE00BF986600202C000940EE
S315000027F02C101140200009402010114028000940EB
S315000028002810114010B41B4C90F8240034F81030F6
S315000028109BB2022B04D101291AD0022924D0E9B196
S31500002820002134F810309BB2022B02D05DF8044B25
S3150000283070470B8823F440631B041B0C0B80002A93
S31500002840F4D00B885DF8044B9BB213430B807047A2
S3150000285009490A4B012808BF1946E2E70849094B0E
S31500002860012808BF1946DCE70749084B012808BFBD
S315000028701946D6E79866002028000940281011401E
S3150000288020000940201011402C0009402C10114056
S31500002890134B90F8242033F812309BB2022B1CD134
S315000028A0012912D0022907D10E490F4B012A08BF70
S315000028B00B46188880B2704779B90C490C4B012A2F
S315000028C008BF0B46188880B270470A490A4B012A8E
S315000028D008BF0B46188880B2704700231B88FFDEAE
S315000028E0986600202E1011402E000940221011403B
S315000028F0220009402A1011402A000940164B90F880
S31500002900242033F812309BB2022B22D101291AD08F
S31500002910022905D11149124B012A08BF19460AE0BE
S31500002920B9B903F180430F4903F5881303F58153C1
S31500002930012A08BF19460B886FEA43436FEA5343DF
S315000029409BB20B8070470849084B012A08BF1946FD
S31500002950F1E700231B88FFDE986600202E00094061
S315000029602E101140220009402A0009402A10114069
S31500002970154B90F8242033F812309BB2022B1FD14E
S31500002980012914D0022908D1104B1149012A08BF88
S315000029900B464FF480421A80704789B90D4B0E4999
S315000029A0012A08BF0B464FF480421A8070470B4B32
S315000029B00B49012A08BF0B464FF480421A80704724
S315000029C000231B80FFDE00BF986600202E00094012
S315000029D02E10114022000940221011402A00094001
S315000029E02A1011400C4B90F8242033F812309BB279
S315000029F0022B00D0704701238B409BB22AB90749AE
S31500002A00CA8E92B21343CB8670470549CA8E92B2DC
S31500002A101343CB86704700BF98660020000009402C
S31500002A20001011400B4B90F8242033F812309BB263
S31500002A30022B00D0704701238B40DB439BB222B9A7
S31500002A40054AD18E0B40D3867047044AD18E0B407F
S31500002A50D386704798660020000009400010114098
S31500002A600C4B90F8242033F812309BB2022B00D086
S31500002A70704701238B409BB22AB907490A8F92B24D
S31500002A8013430B87704705490A8F92B213430B878E
S31500002A90704700BF986600200000094000101140F2
S31500002AA00B4B90F8242033F812309BB2022B00D047
S31500002AB0704701238B40DB439BB222B9054A118F35
S31500002AC00B4013877047044A118F0B4013877047DA
S31500002AD09866002000000940001011400C4B90F849
S31500002AE0242033F812309BB2022B00D07047002A04
S31500002AF0FCD1012310B4074C074824F81120428F5B
S31500002B008B4013439BB25DF8044B4387704700BF6D
S31500002B10986600204C600020000009400B4B90F89E
S31500002B20242033F812309BB2022B00D070470123C9
S31500002B308B40DB439BB222B9054A518F0B4053872A
S31500002B407047044A518F0B405387704798660020A0
S31500002B50000009400010114020B9054BB3F84000B1
S31500002B6080B27047034BB3F8400080B2704700BF95
S31500002B7000000940001011400B4B90F8242033F858
S31500002B8012309BB2022B00D0704701238B40DB43EF
S31500002B90C3F309031AB9054AA2F846307047044A36
S31500002BA0A2F84630704700BF986600200000094032
S31500002BB0001011400B4B90F8242033F812309BB2D2
S31500002BC0022B00D0704701238B40DB43C3F309037C
S31500002BD01AB9054AA2F848307047044AA2F84830A4
S31500002BE0704700BF986600200000094000101140A1
S31500002BF00B4B90F8242033F812309BB2022B00D0F6
S31500002C00704701238B40DB43C3F309031AB9054A16
S31500002C10A2F84A307047044AA2F84A30704700BF0B
S31500002C209866002000000940001011400A4B90F8F9
S31500002C30242033F812309BB2022B01D000207047BB
S31500002C4022B9064BB3F84C0080B27047044BB3F878
S31500002C504C0080B2704700BF986600200000094013
S31500002C600010114020B9054BB3F8540080B27047EC
S31500002C70034BB3F8540080B2704700BF0000094010
S31500002C800010114020B9054BB3F8560080B27047CA
S31500002C90034BB3F8560080B2704700BF00000940EE
S31500002CA00010114020B9054BB3F8580080B27047A8
S31500002CB0034BB3F8580080B2704700BF00000940CC
S31500002CC00010114020B9054BB3F85A0080B2704786
S31500002CD0034BB3F85A0080B2704700BF00000940AA
S31500002CE0001011400A4B90F8242033F812309BB2A2
S31500002CF0022B01D00020704722B9064BB3F85C00C6
S31500002D0080B27047044BB3F85C0080B2704700BFD6
S31500002D10986600200000094000101140084B90F80A
S31500002D20242033F812309BB2022B00D070471AB918
S31500002D30044BA3F85C107047034BA3F85C10704774
S31500002D409866002000000940001011400A4B90F8D8
S31500002D50242033F812309BB2022B01D0002070479A
S31500002D6022B9064BB3F85E0080B27047044BB3F845
S31500002D705E0080B2704700BF9866002000000940E0
S31500002D8000101140084B90F8242033F812309BB203
S31500002D90022B00D070471AB9044BA3F85E10704797
S31500002DA0034BA3F85E1070479866002000000940A8
S31500002DB00010114020B9054BB3F8600080B270478F
S31500002DC0034BB3F8600080B2704700BF00000940B3
S31500002DD000101140084B90F8242033F812309BB2B3
S31500002DE0022B00D070471AB9044BA3F86410704741
S31500002DF0034BA3F864107047986600200000094052
S31500002E00001011400A4B90F8242033F812309BB280
S31500002E10022B01D00020704722B9064BB3F8680098
S31500002E2080B27047044BB3F8680080B2704700BFA9
S31500002E30986600200000094000101140084B90F8E9
S31500002E40242033F812309BB2022B00D070471AB9F7
S31500002E50044BA3F868107047034BA3F8681070473B
S31500002E609866002000000940001011400A4B90F8B7
S31500002E70242033F812309BB2022B01D00020704779
S31500002E8022B9064BB3F86C0080B27047044BB3F816
S31500002E906C0080B2704700BF9866002000000940B1
S31500002EA000101140084B90F8242033F812309BB2E2
S31500002EB0022B00D070471AB9044BA3F86C10704768
S31500002EC0034BA3F86C107047986600200000094079
S31500002ED000101140084B90F8242033F812309BB2B2
S31500002EE0022B00D070471AB9044BA3F86E10704736
S31500002EF0034BA3F86E107047986600200000094047
S31500002F00001011404FF0000C134B90F8242082B0B3
S31500002F10ADF806C033F812309BB2022B04D0BDF8D0
S31500002F20060080B202B0704762B181B10B4B03EB71
S31500002F3041031B889BB2ADF80630BDF8060080B28F
S31500002F4002B0704729B1064B03EB4103F1E7054B8D
S31500002F50EFE7054BEDE700BF986600206E101140C5
S31500002F606E00094060101140600009400A4B90F85D
S31500002F70242033F812309BB2022B00D07047490050
S31500002F803AB1064A0A4413889BB243F400531380AD
S31500002F907047034A0A44F6E7986600206E1011400F
S31500002FA06E0009400D4B90F8242033F812309BB286
S31500002FB0022B00D0704742B9094A32F811309BB251
S31500002FC043F4007322F811307047064A32F8113084
S31500002FD09BB243F4007322F81130704798660020C4
S31500002FE06E0009406E1011400B4B90F8242033F808
S31500002FF012309BB2022B00D07047490042B1074AFB
S315000030000A44138823F400731B041B0C13807047B7
S31500003010034A0A44F5E700BF986600206E10114087
S315000030206E000940174B90F8242033F812309BB2FB
S31500003030022B00D070474AB9D9B9134AB2F86030AA
S315000030409BB243F48073A2F86030704741B90F4ACF
S31500003050B2F860309BB243F48073A2F860307047D8
S315000030600B4A32F811309BB243F4807322F81130C8
S31500003070E0E7084A32F811309BB243F4807322F835
S31500003080113070479866002000000940001011407A
S315000030906E1011406E000940104B90F8240033F872
S315000030A010309BB2022B00D0704770B191B10C4B1F
S315000030B003EB41010B8823F003031B041B0C0B805D
S315000030C00B889BB213430B80704729B1054B03EB6A
S315000030D04101EFE70449EDE70449EBE79866002074
S315000030E06E1011406E0009406010114060000940EA
S315000030F00E4B90F8240033F810309BB2022B00D010
S31500003100704748B169B10A4B03EB41010B889BB28A
S3150000311023EA02030B80704729B1064B03EB4101FA
S31500003120F4E70549F2E70549F0E700BF9866002095
S315000031306E1011406E000940601011406000094099
S315000031400B4B90F8242033F812309BB2022B00D0A0
S315000031507047013989003AB1064A0A4413889BB27E
S3150000316043F4007313807047034A0A44F6E700BF2E
S315000031709866002090101140900009400B4B90F883
S31500003180242033F812309BB2022B00D0704701394D
S31500003190890042B1064A0A44138823F400731B04CB
S315000031A01B0C13807047034A0A44F5E79866002013
S315000031B090101140900009400B4B90F8242033F8F2
S315000031C012309BB2022B00D07047013989003AB108
S315000031D0064A0A4413889BB243F4807313807047EF
S315000031E0034A0A44F6E700BF986600209010114093
S315000031F090000940094B90F8240033F810309BB238
S31500003200022B00D070470139890018B1044B0B44DA
S315000032101A807047034B0B44FAE700BF98660020FC
S315000032209210114092000940704700BF704700BFDE
S315000032300B4B5A6878B911050FD5EFF310810122AF
S3150000324082F310885A6822F400625A605B6881F340
S31500003250108800207047D204EFD440F2DD5070474A
S315000032600040084090B910B4344BD3F8002460F302
S315000032700412C3F8002491F90D30002B31DA91F9CC
S315000032800C30002B03DA5DF8044B70477047CA7C9C
S3150000329003F1604012012A4CD2B200F5614080F879
S315000032A00023284A03F1C00044F8231052F82010E6
S315000032B021F4803142F8201052F82020BFF35F8FAE
S315000032C001215A09920003F01F0302F1604202F540
S315000032D0614201FA03F3C2F8803113605DF8044BD2
S315000032E070470A7D03F1604C1201154CD2B20CF501
S315000032F0614C8CF80023134A03F1C00C44F82310E8
S3150000330052F82C4060F3104442F82C4052F82C201E
S31500003310BFF35F8F01205A09920003F01F0302F1E9
S31500003320604202F5614200FA03F3C2F8803113608D
S3150000333091F90C30002BA6DBA9E700BF000009407D
S31500003340006B002000600040012104F017BA00BFA6
S3150000335005F028BDEFF30383103B094A5BB2C03387
S3150000336052F8231021F4803142F8231052F823300A
S31500003370044B1B889BB2012B00D1704701F0EEBABB
S315000033800060004098660020EFF30383103B094A73
S315000033905BB203F1C00152F8210020F4803042F8FC
S315000033A0210052F82120044A52F82330987800F080
S315000033B0C5BA00BF00600040006B0020EFF3038336
S315000033C0103B064A5BB2C03352F8231021F4803119
S315000033D042F8231052F82330704700BF00600040C7
S315000033E0EFF30383103B064A5BB2C03352F8231057
S315000033F021F4803142F8231052F82330704700BF81
S31500003400006000402DE9F043012A0CBF7A4B7B4B4C
S315000034100446B3F840E0B3F84660B3F84870B3F832
S315000034204A80B3F830C0D88E1D8F5B8F1FFA85F99E
S315000034309DB200231FFA8EFEBEF1FF0F238083B0DC
S31500003440B6B2BFB21FFA88F81FFA8CFC80B20B80A6
S315000034500ED90EEA0C0313F4804F0CD0012A4BF65A
S31500003460FF720CBF644B654BA3F8402012232380E8
S3150000347003B0BDE8F08313F4004F0DD113F4005FE1
S3150000348017D0012A4DF6FF720CBF5B4B5B4BA3F8BE
S31500003490402013232380EBE7012A47F6FF720CBF77
S315000034A0554B564BA3F840201123238003B0BDE8AB
S315000034B0F08313F4805F12D1304013F480761BD072
S315000034C010F0010F18D0012A40F2FE320CBF4A4B11
S315000034D04A4BA3F84620012323800B80C8E7012A24
S315000034E04EF6FF720CBF444B444BA3F84020142306
S315000034F02380A1F800E0BBE713F4806C08EA050519
S315000035000FD015F0010F0CD0012A40F2FE320CBF8D
S31500003510394B3A4BA3F84A200222012322800B8022
S31500003520A6E713F4007F11D007EA090717F0010F89
S315000035304DD0012A40F2FE320CBF2F4B2F4BA3F881
S3150000354048200322012322800B8091E71F051DD40A
S315000035507EB9BCF1000F8BD0EB43012A0CBF264A83
S31500003560264AC3F30903A2F84A30022323800D80BA
S315000035707EE7C343012A0CBF1F4A204AC3F309034F
S31500003580A2F8463001232380088071E71046019196
S315000035900092FFF7E1FA0199009A08804FF2FF7056
S315000035A0012A0CBF144B154BA3F8400015232380AA
S315000035B00B8803F00703062B7FF45AAF10460091E1
S315000035C000F0CCF90023009923800B8050E71B05FF
S315000035D0DCD4002ECDD1BCF1000FBDD1FB43012AB6
S315000035E00CBF054A054AC3F30903A2F84830032372
S315000035F023800F803CE700BF001011400000094007
S3150000360010B5044600F0AAF92046FFF72BFB024648
S31500003610094B20461A80FFF735FB0246074B20462A
S315000036201A80FFF73FFB0246054B20461A80FFF73C
S3150000363049FB044B188010BDF8610020F66100209C
S31500003640F4610020F261002008B590F82400FFF72D
S3150000365083FA00F07000A0F13000B0FA80F0400963
S3150000366008BD00BFFF220F4B70B51B880E4D012B06
S315000036702A8000D070BD044600F050F92046FFF7BE
S315000036806BFA10F4804606D14306F3D5204600F0C7
S315000036901DF92E8070BDD52320462B80BDE87040D5
S315000036A000F04CB94662002044620020704700BF1B
S315000036B010B5044690F8240000F040F994F8240070
S315000036C0BDE8104000F02AB90B4602220146184612
S315000036D0FFF7E2BC02220021FFF7DEBC2DE9F04134
S315000036E0450880460F4614461E4623D002EB450584
S315000036F034F8022B39463046FEF7D4FFAC42F7D1F8
S3150000370018F0010F02D12846BDE8F081394630464F
S315000037100022FFF777F815F8012B39463046FEF7F9
S31500003720DFFF30464FF480623946FFF76BF82846D4
S31500003730BDE8F0811546E3E72DE9F04145088046EE
S315000037400F4614461E4618D002EB4505394630464C
S31500003750FEF78EFF24F8020BAC42F7D118F0010FEA
S3150000376002D12846BDE8F08139463046FEF780FF93
S3150000377005F8010B2846BDE8F0811546EEE700BFC7
S315000037802DE9F041154604460F4601461046FEF760
S31500003790A9FE21462846FFF745F921462846FFF7A8
S315000037A07FF921462846FFF7B9F921462846FEF754
S315000037B005FF00212846FEF7B1FF00F00F00844206
S315000037C02DD021462846DFF8688000F035FA2146DC
S315000037D02846FFF7CBFB58F82460F6B1134B214679
S315000037E053F82430284633613785FFF78BFB708505
S315000037F058F82400436823B100221146984758F828
S31500003800240004F015FA002348F82430214695F8E0
S315000038102400BDE8F04100F0A3BBBDE8F081002321
S3150000382028461A461946FEF7A1FECAE7146100208B
S31500003830C460002010B5064C238803B910BDFFF7FD
S31500003840F3FC6420FFF780FD0023238010BD00BF3A
S315000038504860002010B5064C238803B910BDFFF759
S31500003860E3FC6420FFF770FD0023238010BD00BF3A
S31500003870486000200122024B1A80FFF7D7BC00BF28
S315000038804860002030B9074A13889BB243F0100302
S3150000389013807047044A13889BB243F010031380C9
S315000038A0704700BF000009400010114038B9054AB2
S315000038B0138823F010031B041B0C13807047024A65
S315000038C0F6E700BF000009400010114030B9074A72
S315000038D013899BB243F4807313817047044A13899A
S315000038E09BB243F480731381704700BF0000094008
S315000038F00010114030B9074A138E9BB243F480433F
S3150000390013867047044A138E9BB243F48043138692
S31500003910704700BF000009400010114038B9054A41
S31500003920138E23F480431B041B0C13867047024A34
S31500003930F6E700BF00000940001011404BF6FF7289
S3150000394018B9044BA3F840207047034BA3F8402056
S31500003950704700BF00000940001011404FF6F77293
S3150000396018B9044BA3F840207047034BA3F8402036
S31500003970704700BF000009400010114040B9094AD5
S31500003980B2F860309BB243F00403A2F8603070478F
S31500003990054AB2F860309BB243F00403A2F86030E7
S315000039A0704700BF0000094000101140D8B90E4B07
S315000039B01A8892B242F480621A801A885205FCD59F
S315000039C04FF480614FF41D401A8822F02002120441
S315000039D0120C1A801A8892B242F001021A801984D7
S315000039E019859985188670470000094088B90C4AE0
S315000039F0B2F8603023F003031B041B0CA2F86030FE
S31500003A00B2F860309BB231B943F00103A2F86030DE
S31500003A107047044AECE743F00203A2F860307047AF
S31500003A200000094000101140104B90F800C033F818
S31500003A301C309BB2022B01D0002070470C4B1B8818
S31500003A40012B10D000B54FF0010E93B0094B104674
S31500003A5001AA8DF828C0A3F800E000F011FB0020B1
S31500003A6013B05DF804FBD520704700BF98660020B0
S31500003A70F0610020EE61002030B5214B044600784D
S31500003A809BB033F810308DF848009BB2022B02D061
S31500003A9000201BB030BD0D4661B11A4B1B88012BAF
S31500003AA028D00124184B2946104609AA1C8000F08C
S31500003AB0A3FAEDE7002AF0D1A38809A8E3B1FFF73E
S31500003AC009FE00239225217803AA0C348DF80010F4
S31500003AD0029394E80300ADF8043082E803008DF801
S31500003AE0035005F0B7FB034669460820059300F02E
S31500003AF0D3F8CDE7D520CCE700F0ACF8E1E700BF7E
S31500003B0098660020F0610020EE610020C378092B42
S31500003B1017D810B55B0092B00B4C0291D9B2615C1C
S31500003B200A4C90F800C054F823306846CDE90322C9
S31500003B308DF824C0ADF82210019300F0CBFD12B031
S31500003B4010BD0020704700BF18B8000034030020E5
S31500003B50C378092B1DD85B0010B503F1010C134C7B
S31500003B605FFA8CFC14F80CC092B0BCF1060F12D0B0
S31500003B70039105920E490133027851F8233001A8CA
S31500003B808DF82820ADF826C0029300F0A3FD12B0F0
S31500003B9010BD00207047074B0A7803931A720A2259
S31500003BA0497805925972C3785B00E3E718B80000BC
S31500003BB03403002028030020092900D97047FEF7A6
S31500003BC04FBF00BF092901D90020704708B5FFF78C
S31500003BD099F900F0030008BD09290FD810B541B1C5
S31500003BE00446FFF7F7F82046FFF740F9C0F30A004E
S31500003BF010BDFFF7ABF8C0F30A0010BD00207047F8
S31500003C00092901D90020704710B50446FFF7E2F8EC
S31500003C102046FFF7F7F800F0100010BD092901D97A
S31500003C200020704710B50446FFF7D4F82046FFF78A
S31500003C30E9F800F4404010BD092900D9704738B5AD
S31500003C400C460546FFF7AEF921462846BDE8384042
S31500003C50FFF7CAB9092900D970470122FFF71CBA34
S31500003C60092900D9704738B50C460546FEF73AFCD7
S31500003C7021462846BDE838400222FFF739BA00BF80
S31500003C8008B5FEF7DBFC00F00700431E022B8CBFD5
S31500003C900020800108BD00BF2DE9F0478E46364D55
S31500003CA0DFF8E4A0B5F80080887108EBC80C0AEBD1
S31500003CB08C0C0F46441EBEE80F00ACE80F00BEE8B1
S31500003CC00F00ACE80F00DEF8003046464FEAC809A0
S31500003CD0CCF800300C2C14D8DFE804F00713071FCB
S31500003CE01F07073427270707070039780022234BC9
S31500003CF009EB080053F821300AEB8000114698477B
S31500003D002E881F4B721CA3FB0213DB0803EB8303F5
S31500003D10A2EB43022A80BDE8F0873978194B33F8C5
S31500003D2011309BB2012BE1D1EBE73A78134B09EB4B
S31500003D30080053F82230796900220AEB8000984780
S31500003D402E88DEE739780F4B33F811309BB2012B02
S31500003D50D7D00A4B7A8A09EB080053F821300AEBD0
S31500003D6080001AB9114698472E88CAE70022796959
S31500003D7098472E88C5E700BF3C61002044690020B3
S31500003D80CDCCCCCC986600204869002030B50128FF
S31500003D9083B01FD11D4C04F11405002204210A2012
S31500003DA004F002FA44F8040B88B1AC42F5D1184C81
S31500003DB004F12805002204210A2004F0F5F944F84C
S31500003DC0040B20B1AC42F5D1002003B030BD022077
S31500003DD003B030BD002204210A2004F0E5F90D4BA2
S31500003DE0186078B104240C48002301904FF4007247
S31500003DF00A490B48009404F0C9FD0128CAD00320E3
S31500003E0003B030BD012003B030BD00BF68610020A3
S31500003E104061002098610020A86100204CAE00009F
S31500003E203D420000B9B138B5002540F6B833AA4284
S31500003E3008BF1A46094B0D6053F820300C46186827
S31500003E4004F048FB012801D0FF2038BD2368002B71
S31500003E50FAD0284638BDFF20704700BFC4030020B3
S31500003E6000B583B0019151B10023094A01A952F866
S31500003E70202010681A4604F0C5F9012803D0FF2057
S31500003E8003B05DF804FB002003B05DF804FB00BF3F
S31500003E90C4030020002300B585B00191039349B106
S31500003EA00D4A52F8201003AA086801A904F08AFAFC
S31500003EB0012803D0FF2005B05DF804FB039B3BB14E
S31500003EC04FF08052054B5A60BFF34F8FBFF36F8F91
S31500003ED0002005B05DF804FBC403002000ED00E0FF
S31500003EE030B50C4683B090F8245003F0A1FE631E53
S31500003EF0082B11D805EB850304EB4304074D03E0BB
S31500003F00019848B103F094FE002255F8240001A957
S31500003F1004F0E0FA0128F3D003B030BD4061002080
S31500003F2070B50E4682B090F8244003F081FE731EF1
S31500003F30042B10D804EB8404084D344403E00198A4
S31500003F4048B103F075FE002255F8240001A904F0DB
S31500003F50C1FA0128F3D002B070BD00BF686100202D
S31500003F604B1E082B00D9704710B500EB8003124A90
S31500003F7001EB430182B0044652F82100002201A958
S31500003F8004F0A8FA012801D002B010BD019B002B55
S31500003F90FAD00A4A002332F81420094C92B2012AB8
S31500003FA018BF052054F820001A4601A9006804F03D
S31500003FB029F902B010BD00BF4061002098660020BC
S31500003FC0C403002010B54B1E82B0082B01900ED8FA
S31500003FD08C46002390F82400064C00EB80000CEB86
S31500003FE0400C1A4654F82C0001A904F00BF902B053
S31500003FF010BD00BF4061002070B5012514460022A7
S315000040001C4B1D801C4B18601C4820230160114668
S315000040102046FEF7ABFA00212046FEF7A9FC002158
S315000040202046FEF7E5FD00212246084600F06CFD1D
S315000040300128054613D020F00206B6B20EB1284676
S3150000404070BD31462046FEF749FD31462046FFF752
S31500004050B3FD20463146FFF7FDFD284670BD2046DC
S315000040600021FFF7A9FD20460021FFF7F3FD2846B2
S3150000407070BD00BFF061002014610020EC600020DC
S315000040804FF0010C10B5104C0023A4F800C01446E4
S315000040900E4A10600E481A46016019462046FEF781
S315000040A065FA20460021FEF763FC20460021FEF754
S315000040B099FC20460021FFF77FFD2046BDE8104011
S315000040C00021FFF7C7BD00BFF0610020146100208A
S315000040D0EC60002070B500250C460646194A1A4BBE
S315000040E02946204615801D80FEF718FD29462046E4
S315000040F0FEF798FC29462046FEF7D2FC94F82430B9
S315000041002946012B0CBF4FF400624FF48062204613
S31500004110FEF778FB26F00203052B07D0082E0AD0FF
S3150000412094F82400BDE87040FFF728BC2046BDE89F
S315000041307040FFF7CFBA2046BDE870400021FEF779
S31500004140D1B900BFF0610020EE61002003464FF0B8
S31500004150010C00B5074A8BB093F82430032001A95F
S31500004160A2F800C08DF80430FFF796FD0BB05DF89D
S3150000417004FB00BFEC610020034600B58BB093F84A
S315000041802430042001A98DF80430FFF785FD0BB01B
S315000041905DF804FB034600B58BB093F82420DB6979
S315000041A0052001A98DF804200693FFF775FD0BB0D5
S315000041B05DF804FB704700BF094B1A88012A00D03E
S315000041C07047002200B58BB090F824C001A90620E4
S315000041D08DF804C01A80FFF75FFD0BB05DF804FB95
S315000041E0EC61002038B50446458CFFF72DFA01280E
S315000041F00AD0294620461DB1FFF772FE002038BDC1
S31500004200FFF78EFE002038BD0B4B294653F82520BC
S3150000421020461AB1FFF7D6FE002038BD43F82540E8
S31500004220FFF7EEFC18B9284600F0F4FCE6E728464E
S3150000423000F03CFCE2E700BFC46000202DE9F04F2F
S31500004240824EDFF81882824FDFF814A2DFF814924C
S3150000425083B04FF47A72052001A9FFF7E3FD002829
S31500004260F7D16FF4A872019C238C1344042BF0D869
S3150000427001A252F823F000BFB5420000AD42000093
S31500004280A1420000534200008D42000094F8240031
S31500004290FFF7E0FA019B93F82400FFF7E3F9D8E76C
S315000042A022460821608CFFF76BFAD2E72046FFF71B
S315000042B099FFCEE7638C218D013B142BC9D801A24F
S315000042C052F823F07943000071430000694300006F
S315000042D05342000053420000534200005342000084
S315000042E05342000053420000534200005342000074
S315000042F05342000053420000534200005342000064
S315000043005342000055430000414300005342000061
S315000043102B4300001943000001F00705052D33D893
S31500004320DFE805F0672E322E322E01F07003402BA7
S315000043305BD053D8102B8CD1204600F0F3FE88E7D3
S31500004340736A1BB100222046114698472046FFF7A4
S31500004350AFF97EE794F8240000F084FF4028204659
S3150000436054D000F009FF74E7204600F0CDFA70E75C
S31500004370204600F0CFFA6CE7204600F095FA68E791
S3150000438094F82400FFF73CF9B8F8002012F0600F0B
S3150000439007D1691E052950D8DFE801F04B47433F96
S315000043A03B4F00232B49B9F800C008881946BAF8D4
S315000043B000E062F30F036CF30F01D6F82CB06EF336
S315000043C01F4360F31F413B607960BBF1000F3FF470
S315000043D040AF224629461E48D8473AE7602B04D00C
S315000043E001F0500150297FF434AF204600F004FF5D
S315000043F02FE7194B1B88012B24D0B8F8002012F0A8
S31500004400600FCED1204600F0CBFF22E700F0A8FED9
S315000044101FE7204601F050F91BE7204601F04EFB4E
S3150000442017E7204601F046F913E7204601F0E4FAC3
S315000044300FE7204600F0F4FF0BE721460720FFF7C1
S3150000444049FE06E72046FFF731F9D6E7B8610020B6
S31500004450B0610020F261002040620020F861002077
S31500004460F6610020F4610020002110B4054C064BD3
S3150000447021804FF4FF7205485DF8044B198005F062
S31500004480EDB900BF5E640020466200206062002035
S315000044908446044B4FF4FF7200210348A3F800C082
S315000044A005F0DCB95E640020606200204FF0FF106A
S315000044B04FF0FF11044B03F12002E3E802019A4298
S315000044C0C3E90601F9D1704700620020014B9B68E1
S315000044D018797047B861002030B5104B9B6893F887
S315000044E002E0D9781A784EEA012E7245134412D2A8
S315000044F005460020197893F801C00A44BCF1040F60
S315000045001C4692B20B4403D1A178A94208BFE078B9
S315000045109645EFD830BD002030BD00BFB861002001
S315000045202DE9F041264B9B68DC7893F802E01A7877
S315000045300EEB042E1FFA8EFE7245134437D2002569
S31500004540204E2F462C461DE0BCF1050F13D1AC4280
S3150000455011D293F802C093F902800CF00F0C4FEAC7
S31500004560D8780CEB081C07EB04085FFA88F80134CE
S3150000457026F81C80A4B293F800C0624492B2724539
S31500004580634414D293F801C0BCF1040FDCD193F854
S31500004590028093F804C080450BD0BC441FFA8CF708
S315000045A093F800C06244D2B272456344EAD3BDE8D0
S315000045B0F08193F803808845EFD16546F0E700BFA8
S315000045C0B861002000620020044B188820B1044B1B
S315000045D09B68D879C0F34010704700BF5E64002026
S315000045E0B8610020024B9B68D879C0F380107047F1
S315000045F0B8610020092800D9704738B50446154629
S3150000460000F04CFB032815D80138022822D8DFE831
S3150000461000F003020A0038BD2A462046BDE83840AD
S31500004620042100F0B9BB2A462046BDE838400521E2
S31500004630FFF7A6B8FF2806D12A462046BDE838402F
S315000046401521FFF79DB82A462046BDE838400721C8
S31500004650FFF796B82A462046BDE83840032100F009
S315000046609BBB00BF092800D9704770B504460E46AB
S31500004670154601461046FEF7D5F92A46314620462C
S3150000468000F042FA022813D008D9FF281AD12A4688
S315000046902046BDE870401521FFF772B8214628462E
S315000046A0FEF71CFA21462846BDE87040FFF784BA9B
S315000046B021462846FEF796F921462846BDE8704071
S315000046C0FFF77ABA2A462046BDE870400721FFF771
S315000046D057B800BF38B5438CD3B1044600224FF417
S315000046E0A97344202260238403F008FA054678B1B2
S315000046F02146442205F0F8F804F0ACFD03462946AD
S315000047000520EB61FFF7ACFB044620B9204638BD17
S31500004710FF24204638BD284603F08AFA204638BDD5
S315000047204A68134B2DE9F041D2E900011860906800
S31500004730DFF85080002908BF01469960D168DFF88C
S3150000474048E059601169127DDFF840C0094F0A4EF2
S315000047500A4D0B4C83F83020C3E9058EC3E907C721
S31500004760C3E90965D8601961DC62BDE8F08100BF64
S31500004770B86100207941000095410000B541000074
S31500004780195C0000FD4700004D410000B9410000E2
S315000047902DE9F047047894422AD2064617469846F1
S315000047A04FF0000A4FF0FF0911E0BCF1050F08D1E8
S315000047B052464146284600F0C3FB002818BF4FF07A
S315000047C0000995F800C06444A4B2A7420DD9351972
S315000047D095F801C0BCF1040FE7D195F800C095F833
S315000047E005A06444A4B2A742F1D84846BDE8F087C4
S315000047F04FF0FF094846BDE8F08700BF2DE9F041BC
S31500004800274B04461A880D46012A8AB033D00DF18B
S315000048100408244BC02D9A6822D0002A38D00221E1
S315000048205170DB680BB1072159701746FB78BE78CB
S3150000483094F8240006EB0326B6B200F0E7FB234605
S31500004840324629463846FFF7A3FF94F82430012064
S3150000485041468DF80430FFF71FFA0AB0BDE8F08133
S31500004860DF68DAB107215170DB680BB102225A709A
S31500004870002FDBD1FEE7002290F824100DF104088A
S315000048808DF80410062041461A80FFF705FAC0E7A6
S31500004890DB68002BEED007225A70EBE73B46E4E7D5
S315000048A0EC610020B8610020CB0711D5002102463B
S315000048B010B50446084600F0F1F9032810D019D8BF
S315000048C0022807D12046BDE810400021FFF7C2B9F3
S315000048D000F068BA2046BDE810400021FEF7A2B8F5
S315000048E020460021FEF744F82146BDE81040052089
S315000048F0FFF7F0BBFF2805D12146BDE81040072091
S31500004900FFF7E8BB10BD00BFCB0700D5704700F02E
S315000049107BBA00BFCB0711D50021024610B504466D
S31500004920084600F0F1F8022810D009D9FF2813D163
S315000049302146BDE810400720FFF7CCBB00F090BA37
S315000049402046BDE810400021FEF7E8B82046BDE845
S3150000495010400021FFF77EB910BD00BF184A70B5A0
S315000049601688731C03F0070313803401EFF30383E7
S31500004970144A103B5BB252F82350A878FEF75AFF50
S3150000498040F251121048A31900EB83042284AA783E
S315000049909B0084F8242003F13801D5E909654650C7
S315000049A001444D6003F12801223301441844FEF707
S315000049B029FD2146BDE870400520FFF76BBA00BF10
S315000049C060640020006B0020646400202DE9F04143
S315000049D015460446884601461046FDF783FD2146E6
S315000049E02846FEF71FF821462846FEF759F8174EC7
S315000049F021462846FEF792F821462846FDF7DEFDB9
S31500004A0056F82470FFB1124B214653F8243028463D
S31500004A103B61A7F82880FEF775FA0022788556F8DC
S31500004A202400114643684484984756F8240003F04E
S31500004A30FFF8002346F82430214695F82400BDE807
S31500004A40F041FFF78DBABDE8F08100BFC4600020D9
S31500004A501461002091F824100F4B01EB810101EB4A
S31500004A60810103EB8103C10801F0100100F00F0082
S31500004A700122084304E001320A2A03F10A0309D09D
S31500004A8059890129F7D1998901F01F018842F2D18C
S31500004A9090B27047FF20704760600020002070478A
S31500004AA008B5FDF797FDC0F3C01008BD092800D969
S31500004AB0704770B50446114B014653F820502846FE
S31500004AC02E69FDF70FFD0E4A0E4B42F82460AA68C8
S31500004AD02146284643F82420FEF78AF82146284630
S31500004AE0FEF74AF820462A460021FFF7BBFD21467D
S31500004AF02846BDE87040FFF7ADB800BFC46000208F
S31500004B0014610020EC6000202DE9F04F092883B0E5
S31500004B1059D8154650EA010204460E4667D00A46A1
S31500004B20002301462846FDF7F3FCFF284BD021461B
S31500004B302846FDF7A9FB0746DFF8D0802146284620
S31500004B40FFF74AF858F82430BB46BB4229D94FF044
S31500004B50020921462846FFF735F8DFF8B4A02146BA
S31500004B6001902846FDF7BEFC2B46314638465AF8DA
S31500004B702420FEF7B3FD58F824304AF824009B455C
S31500004B8027D8DB1B48F8243021462846FEF730F8A4
S31500004B90019B03F00303012B2FD0484603B0BDE869
S31500004BA0F08F9FB267B1B7FBF0F300FB13739BB2B4
S31500004BB033B9B4FA84F94FEA59194FEA4909C8E7F3
S31500004BC04FF00109C5E74FF0FF09484603B0BDE8BD
S31500004BD0F08F00233146284648F82430FDF758FE6A
S31500004BE00304D1D431462846FDF788FECCE72023BE
S31500004BF011462846FDF78CFC97E728462146FFF725
S31500004C0029F8484603B0BDE8F08F00BF14610020C4
S31500004C10EC600020092800D970471D4B70B553F889
S31500004C2020600446014630463569FDF75BFC0023EB
S31500004C301849194A41F82450B168304642F8241000
S31500004C4021461A46FDF792FC21463046FEF7C4FF80
S31500004C504DB1B5FBF0F200FB125092B288B9214675
S31500004C603046FDF799FC21463046FEF7F3FF214614
S31500004C703046FDF7B7FE21463046BDE87040FEF7E8
S31500004C809BBF01322146304692B2FDF785FCEAE72A
S31500004C90C460002014610020EC60002009282DE982
S31500004CA0F04738D8164604460A4688460023014689
S31500004CB03046FDF72DFCFF282DD0354FC0F30B05F0
S31500004CC021463046FEF788FF57F82430AA46AB4205
S31500004CD033D33FD025B3B5FBF0F300FB13539BB2A0
S31500004CE0002B43D021463046FDF7FCFB4FF001096F
S31500004CF02846284D3346414655F82420FEF71CFD2C
S31500004D0045F8240057F824304846A3EB0A0347F831
S31500004D102430BDE8F0874FF0FF094846BDE8F0872C
S31500004D2021463046FDF7DEFB4FF00109414630468D
S31500004D30FDF71EFE4FF0000AE4E721463046FDF778
S31500004D40D1FB57F8243047F824509DB24FF00309A1
S31500004D50AA46CDE79CB9B5FBF0F300FB13539BB213
S31500004D603BB94FF00209002DE0D0C1E74FF0020930
S31500004D70BEE721463046FDF7B5FBA146B8E721461A
S31500004D803046FDF7AFFB4FF00009002DCED0AFE760
S31500004D9014610020EC600020092800D97047FFF755
S31500004DA015BE00BF2DE9F843012407460D462646E9
S31500004DB0DFF8509002E001340A2C1BD006FA04F307
S31500004DC01D42F8D01FFA84F841463846FDF710FF19
S31500004DD059F82430002BEED041463846FEF710FF36
S31500004DE0102809D03A46002140460134FFF702FC5C
S31500004DF00A2CE3D1BDE8F88340463A460021FFF786
S31500004E0031FCD8E7C46000202DE9F8430124804630
S31500004E100D462646DFF8449006FA04F31D420AD0F2
S31500004E2059F82430A7B233B139464046FEF7F6FEAC
S31500004E30B0F5404F04D001340A2CEDD1BDE8F8831B
S31500004E404046FDF7F3FE10F4004F4246384614BFC5
S31500004E5005210721FEF794FCEDE700BFC4600020A2
S31500004E602DE9F047012406460D462746DFF8C8908F
S31500004E70DFF8C88007FA04F31D4227D059F824301A
S31500004E8023B396F824301FFA84FA03EB830304EB6A
S31500004E90430338F81330012B18D051463046FEF73D
S31500004EA091FE820736D451463046FEF72BF843046E
S31500004EB039D496F82430504603EB830304EB4303BE
S31500004EC03246012128F81370FFF780FD0134062CC5
S31500004ED0D0D10127DFF8609007FA04F31D4210D005
S31500004EE059F824301FFA84F85BB141463046FEF784
S31500004EF069FE10F0020F3246404607D00621FEF743
S31500004F003FFC01340A2CE7D1BDE8F0870121FFF709
S31500004F105DFDF6E75046324606210134FEF730FCC9
S31500004F20062CA7D1D5E7514630460134FDF7D6FD0C
S31500004F30062C9FD1CDE700BFC46000204C60002046
S31500004F4003464078052811D130B5D87800F0030023
S31500004F5002280DD0032807D193F9020093F802C066
S31500004F60002801DA022A3FD0002030BD0020704719
S31500004F7093F902E093F802C0BEF1000F23DB0A2A80
S31500004F80F2D14FF0640E91F824101F4A0EFB012E49
S31500004F90BEF81440002CE7D186464FF485449D8820
S31500004FA0642303FB01F101230EEB8E0E01EB4E0190
S31500004FB0535200230CF00F0C0A4444EA0C045480AC
S31500004FC0D580138130BD0A2ACED1642091F82410F1
S31500004FD00D4A00FB012040890028C5D14FF0010E83
S31500004FE044F210247046DAE7642091F82410064A49
S31500004FF000FB0120808F0028B6D14FF0060E48F244
S3150000500010047046CBE700BF606000204FF0000C34
S3150000501000EB800010B400EB80000A4C820004F123
S31500005020640102F10A03234411441A880A33012A4F
S3150000503004BF43F80ACC43F804CC8B42F5D15DF8A3
S31500005040044B7047606000202DE9F041012464277D
S315000050500546244E02E001340A2C2BD095F8243064
S3150000506004EB840207FB03F303EB4203F35A012B21
S31500005070F1D100212846FDF751FB1FFA84F800F014
S315000050800F00404518D001212846FDF747FB00F0E8
S315000050900F0040451ED002212846FDF73FFB00F0D9
S315000050A00F0040450FD0414628460134FDF704F96C
S315000050B00A2CD3D1BDE8F081002328461A461946AA
S315000050C0FDF754FADFE70023022228461946FDF7CA
S315000050D04DFAE8E70023012228461946FDF746FA6D
S315000050E0D9E700BF60600020F8B5012464270546B3
S315000050F00B4E02E001340A2C11D095F8243004EB53
S31500005100840207FB03F303EB4203F35A012BF1D1AD
S31500005110A1B228460134FDF777F90A2CEDD1F8BD86
S315000051206060002038B504460C4D00F0BBF8FFF770
S315000051309BF92046FEF7A4FD6B691BB101460022D0
S315000051402046984720460021FDF7E8FD2B682046BB
S31500005150D979BDE83840FDF715BE00BFB86100201B
S3150000516010B504460A20FEF7F3F894F82400BDE8CB
S315000051701040FEF787BB00BF2DE9F041054690F8C9
S315000051802400FEF793FB0023174A184901246427DD
S31500005190174E0B80138002E001340A2C18D095F8C4
S315000051A0243004EB840107FB03F303EB4103F35ABA
S315000051B0012BF1D11FFA84F82A4608214046FEF752
S315000051C0DFFA013441462846FDF71EF90A2CE6D1DE
S315000051D0084BDB692BB12846BDE8F04100221E21B1
S315000051E01847BDE8F08100BF5E64002046620020DB
S315000051F060600020B861002070B5044690F8240075
S31500005200FEF778FB94F82400FDF7A6FC0546204639
S31500005210FDF7FAF96B0603D500F00300012809D063
S3150000522094F82400FEF78AFB94F82400BDE8704049
S31500005230FEF774BB94F82400FEF71CFB00F034F86C
S31500005240054B1B6A33B105492046BDE87040002274
S315000052500988184770BD00BFB8610020466200206B
S31500005260FEF738BA70B506463046FDF775FC0546BA
S315000052700A20FEF769F83046FDF76EFC04460A2060
S31500005280FEF762F83046FDF767FC85EA0403444002
S3150000529023431B06E8D415F0800F0CBF43204020A3
S315000052A070BD00BF704700BF704700BF70B50024D7
S315000052B0402205460E462648002104F0CFFA4FF458
S315000052C0FF720021234804F0C9FA234B234A1C60CD
S315000052D05C60234B23491C60234B0C801C80234BB2
S315000052E021461C80224B14801C80224B34221C80B9
S315000052F0214B22481C80224B1C8004F0AFFA214629
S315000053002822204804F0AAFA21460E2428221E4804
S3150000531004F0A4FA1D4B03F5B4729C712433934236
S31500005320FBD100241A4B214628221A481C605C60D7
S315000053309C60DC601C6104F091FA174A174B3146F9
S31500005340284614801C80BDE87040FFF7E9B900BF0D
S315000053500062002060620020B061002042620020EE
S315000053605C620020F8610020F6610020F4610020F4
S31500005370F2610020F0610020EE610020B86100209B
S31500005380EC610020EC6000201461002048690020D8
S3150000539048620020C46000205E640020466200204F
S315000053A02DE9F0410025174B174A1B88158003F499
S315000053B07F43B3F5106F0ED0B3F5306F19D1134B91
S315000053C09B6AB3B1124A134914882A4631F814105D
S315000053D0BDE8F0411847104E104F04463088B7F824
S315000053E00080FFF755F83388434502D0074B9B6989
S315000053F00BB9BDE8F0812A4620463988BDE8F04160
S31500005400184700BFF8610020EE610020B861002057
S31500005410F461002060620020F66100205E640020D6
S31500005420984B70B51B88044603F47F42B2F5006FB3
S3150000543063D017D8002A37D0B2F5C06F15D113F054
S315000054401F0273D1904B1A88130A013BD5B2062B63
S315000054500BD8DFE813F09C008100DC000A000A008C
S31500005460CE00AF00B2F5206F04D02046BDE87040F4
S31500005470FEF730B903F01F03012BF6D1824B1B88D0
S31500005480002BF2D1814B18880128EED1804B1B8866
S31500005490FE2BEAD87F4A804932F8133022460B7039
S315000054A0BDE87040FEF7A8BD774A1288002ADCD115
S315000054B0764909880229D8D1784D03F01F03012BBC
S315000054C02A8000F0BE80022B00F0AD80002BCCD1EC
S315000054D06F4B1B88002BC8D1FFF784F8704B2870E0
S315000054E01B88012B04BF40F0020028702246BDE84D
S315000054F0704002206949FEF77FBD6549624A088807
